S0150000436F6E74726F6C5F54696D65722E73726563CE
S11300000C9434000C943E000C943E000C943E007E
S11300100C943E000C943E000C943E000C943E0064
S11300200C943E000C943E000C943E000C943E0054
S11300300C943E000C943E000C943E000C943E0044
S11300400C943E000C943E000C943E000C943E0034
S11300500C943E000C943E000C943E000C943E0024
S11300600C943E000C943E0011241FBECFEFD8E048
S1130070DEBFCDBF0E944A000C9454000C940000D3
S11300808FE586BD81E084BDA89BFECF14BC81E0D2
S113009085BB08958FEF87B9C1E0C8B90E944000BD
S10F00A018B80E944000F9CFF894FFCF7C
S9030000FC
